{
  "_format": "hh-sol-artifact-1",
  "contractName": "Onther2",
  "sourceName": "contracts/Onther2.sol",
  "abi": [
    {
      "inputs": [],
      "name": "MY_STUDENT_NUMBER",
      "outputs": [
        {
          "internalType": "uint256",
          "name": "",
          "type": "uint256"
        }
      ],
      "stateMutability": "view",
      "type": "function"
    },
    {
      "inputs": [],
      "name": "doSomething",
      "outputs": [
        {
          "internalType": "string",
          "name": "",
          "type": "string"
        }
      ],
      "stateMutability": "pure",
      "type": "function"
    },
    {
      "inputs": [],
      "name": "mainPoint",
      "outputs": [
        {
          "internalType": "string",
          "name": "",
          "type": "string"
        }
      ],
      "stateMutability": "view",
      "type": "function"
    },
    {
      "inputs": [],
      "name": "onther",
      "outputs": [
        {
          "internalType": "contract Onther",
          "name": "",
          "type": "address"
        }
      ],
      "stateMutability": "view",
      "type": "function"
    },
    {
      "inputs": [],
      "name": "ontherer",
      "outputs": [
        {
          "internalType": "address",
          "name": "",
          "type": "address"
        }
      ],
      "stateMutability": "view",
      "type": "function"
    },
    {
      "inputs": [],
      "name": "shortFunction",
      "outputs": [
        {
          "internalType": "uint256",
          "name": "",
          "type": "uint256"
        }
      ],
      "stateMutability": "pure",
      "type": "function"
    },
    {
      "inputs": [
        {
          "internalType": "uint256",
          "name": "x",
          "type": "uint256"
        },
        {
          "internalType": "uint256",
          "name": "y",
          "type": "uint256"
        }
      ],
      "name": "subPoint",
      "outputs": [
        {
          "internalType": "uint256",
          "name": "",
          "type": "uint256"
        }
      ],
      "stateMutability": "pure",
      "type": "function"
    }
  ],
  "bytecode": "0x60806040526040516100109061007e565b604051809103906000f08015801561002c573d6000803e3d6000fd5b506000806101000a81548173ffffffffffffffffffffffffffffffffffffffff021916908373ffffffffffffffffffffffffffffffffffffffff16021790555034801561007857600080fd5b5061008b565b6105b08061087f83390190565b6107e58061009a6000396000f3fe608060405234801561001057600080fd5b506004361061007d5760003560e01c8063ca240d1f1161005b578063ca240d1f146100dc578063dbf49814146100fa578063dc8762131461012a578063e0149704146101485761007d565b80631b7d954c146100825780637162d25d146100a057806382692679146100be575b600080fd5b61008a610166565b6040516100979190610318565b60405180910390f35b6100a8610172565b6040516100b59190610318565b60405180910390f35b6100c661017a565b6040516100d391906103c3565b60405180910390f35b6100e46101b7565b6040516100f19190610426565b60405180910390f35b610114600480360381019061010f9190610481565b6101dd565b6040516101219190610318565b60405180910390f35b6101326101f1565b60405161013f91906103c3565b60405180910390f35b61015061028c565b60405161015d9190610520565b60405180910390f35b600063789d441a905090565b63789d441a81565b60606040518060400160405280600c81526020017f48656c6c6f20576f726c64210000000000000000000000000000000000000000815250905090565b600160009054906101000a900473ffffffffffffffffffffffffffffffffffffffff1681565b60006101e983836102b0565b905092915050565b606060008054906101000a900473ffffffffffffffffffffffffffffffffffffffff1673ffffffffffffffffffffffffffffffffffffffff166306fdde036040518163ffffffff1660e01b8152600401600060405180830381865afa15801561025e573d6000803e3d6000fd5b505050506040513d6000823e3d601f19601f820116820180604052508101906102879190610661565b905090565b60008054906101000a900473ffffffffffffffffffffffffffffffffffffffff1681565b600060058311156102ce5781836102c791906106d9565b90506102f9565b60058310156102ea5781836102e3919061073c565b90506102f9565b81836102f6919061076d565b90505b92915050565b6000819050919050565b610312816102ff565b82525050565b600060208201905061032d6000830184610309565b92915050565b600081519050919050565b600082825260208201905092915050565b60005b8381101561036d578082015181840152602081019050610352565b60008484015250505050565b6000601f19601f8301169050919050565b600061039582610333565b61039f818561033e565b93506103af81856020860161034f565b6103b881610379565b840191505092915050565b600060208201905081810360008301526103dd818461038a565b905092915050565b600073ffffffffffffffffffffffffffffffffffffffff82169050919050565b6000610410826103e5565b9050919050565b61042081610405565b82525050565b600060208201905061043b6000830184610417565b92915050565b6000604051905090565b600080fd5b600080fd5b61045e816102ff565b811461046957600080fd5b50565b60008135905061047b81610455565b92915050565b600080604083850312156104985761049761044b565b5b60006104a68582860161046c565b92505060206104b78582860161046c565b9150509250929050565b6000819050919050565b60006104e66104e16104dc846103e5565b6104c1565b6103e5565b9050919050565b60006104f8826104cb565b9050919050565b600061050a826104ed565b9050919050565b61051a816104ff565b82525050565b60006020820190506105356000830184610511565b92915050565b600080fd5b600080fd5b7f4e487b7100000000000000000000000000000000000000000000000000000000600052604160045260246000fd5b61057d82610379565b810181811067ffffffffffffffff8211171561059c5761059b610545565b5b80604052505050565b60006105af610441565b90506105bb8282610574565b919050565b600067ffffffffffffffff8211156105db576105da610545565b5b6105e482610379565b9050602081019050919050565b60006106046105ff846105c0565b6105a5565b9050828152602081018484840111156106205761061f610540565b5b61062b84828561034f565b509392505050565b600082601f8301126106485761064761053b565b5b81516106588482602086016105f1565b91505092915050565b6000602082840312156106775761067661044b565b5b600082015167ffffffffffffffff81111561069557610694610450565b5b6106a184828501610633565b91505092915050565b7f4e487b7100000000000000000000000000000000000000000000000000000000600052601160045260246000fd5b60006106e4826102ff565b91506106ef836102ff565b9250828201905080821115610707576107066106aa565b5b92915050565b7f4e487b7100000000000000000000000000000000000000000000000000000000600052601260045260246000fd5b6000610747826102ff565b9150610752836102ff565b9250826107625761076161070d565b5b828204905092915050565b6000610778826102ff565b9150610783836102ff565b9250828202610791816102ff565b915082820484148315176107a8576107a76106aa565b5b509291505056fea2646970667358221220dbb4ad4ae0633cc266f52489ece2e003b8b8c38a68bb2df6791dd5dc928d428264736f6c6343000814003360806040526040518060400160405280600681526020017f4f6e7468657200000000000000000000000000000000000000000000000000008152506000908161004891906102ab565b5034801561005557600080fd5b5061037d565b600081519050919050565b7f4e487b7100000000000000000000000000000000000000000000000000000000600052604160045260246000fd5b7f4e487b7100000000000000000000000000000000000000000000000000000000600052602260045260246000fd5b600060028204905060018216806100dc57607f821691505b6020821081036100ef576100ee610095565b5b50919050565b60008190508160005260206000209050919050565b60006020601f8301049050919050565b600082821b905092915050565b6000600883026101577fffffffffffffffffffffffffffffffffffffffffffffffffffffffffffffffff8261011a565b610161868361011a565b95508019841693508086168417925050509392505050565b6000819050919050565b6000819050919050565b60006101a86101a361019e84610179565b610183565b610179565b9050919050565b6000819050919050565b6101c28361018d565b6101d66101ce826101af565b848454610127565b825550505050565b600090565b6101eb6101de565b6101f68184846101b9565b505050565b5b8181101561021a5761020f6000826101e3565b6001810190506101fc565b5050565b601f82111561025f57610230816100f5565b6102398461010a565b81016020851015610248578190505b61025c6102548561010a565b8301826101fb565b50505b505050565b600082821c905092915050565b600061028260001984600802610264565b1980831691505092915050565b600061029b8383610271565b9150826002028217905092915050565b6102b48261005b565b67ffffffffffffffff8111156102cd576102cc610066565b5b6102d782546100c4565b6102e282828561021e565b600060209050601f8311600181146103155760008415610303578287015190505b61030d858261028f565b865550610375565b601f198416610323866100f5565b60005b8281101561034b57848901518255600182019150602085019450602081019050610326565b868310156103685784890151610364601f891682610271565b8355505b6001600288020188555050505b505050505050565b6102248061038c6000396000f3fe608060405234801561001057600080fd5b506004361061002b5760003560e01c806306fdde0314610030575b600080fd5b61003861004e565b604051610045919061016c565b60405180910390f35b6000805461005b906101bd565b80601f0160208091040260200160405190810160405280929190818152602001828054610087906101bd565b80156100d45780601f106100a9576101008083540402835291602001916100d4565b820191906000526020600020905b8154815290600101906020018083116100b757829003601f168201915b505050505081565b600081519050919050565b600082825260208201905092915050565b60005b838110156101165780820151818401526020810190506100fb565b60008484015250505050565b6000601f19601f8301169050919050565b600061013e826100dc565b61014881856100e7565b93506101588185602086016100f8565b61016181610122565b840191505092915050565b600060208201905081810360008301526101868184610133565b905092915050565b7f4e487b7100000000000000000000000000000000000000000000000000000000600052602260045260246000fd5b600060028204905060018216806101d557607f821691505b6020821081036101e8576101e761018e565b5b5091905056fea2646970667358221220b583528189048d24bed381c879d313c3f85e2bc7f9d5514d342c21eb064fe1a964736f6c63430008140033",
  "linkReferences": {},
  "deployedLinkReferences": {}
}