{
  "_format": "hh-sol-artifact-1",
  "contractName": "Onther2",
  "sourceName": "contracts/Onther2.sol",
  "abi": [
    {
      "inputs": [],
      "name": "MY_STUDENT_NUMBER",
      "outputs": [
        {
          "internalType": "uint256",
          "name": "",
          "type": "uint256"
        }
      ],
      "stateMutability": "view",
      "type": "function"
    },
    {
      "inputs": [],
      "name": "doSomething",
      "outputs": [
        {
          "internalType": "string",
          "name": "",
          "type": "string"
        }
      ],
      "stateMutability": "pure",
      "type": "function"
    },
    {
      "inputs": [],
      "name": "mainpotin",
      "outputs": [
        {
          "internalType": "string",
          "name": "",
          "type": "string"
        }
      ],
      "stateMutability": "view",
      "type": "function"
    },
    {
      "inputs": [],
      "name": "onther",
      "outputs": [
        {
          "internalType": "contract Onther",
          "name": "",
          "type": "address"
        }
      ],
      "stateMutability": "view",
      "type": "function"
    },
    {
      "inputs": [],
      "name": "ontherer",
      "outputs": [
        {
          "internalType": "address",
          "name": "",
          "type": "address"
        }
      ],
      "stateMutability": "view",
      "type": "function"
    },
    {
      "inputs": [],
      "name": "shortFunction",
      "outputs": [
        {
          "internalType": "uint256",
          "name": "",
          "type": "uint256"
        }
      ],
      "stateMutability": "pure",
      "type": "function"
    },
    {
      "inputs": [
        {
          "internalType": "uint256",
          "name": "x",
          "type": "uint256"
        },
        {
          "internalType": "uint256",
          "name": "y",
          "type": "uint256"
        }
      ],
      "name": "subpoint",
      "outputs": [
        {
          "internalType": "uint256",
          "name": "",
          "type": "uint256"
        }
      ],
      "stateMutability": "pure",
      "type": "function"
    }
  ],
  "bytecode": "0x60806040526040516100109061007e565b604051809103906000f08015801561002c573d6000803e3d6000fd5b506000806101000a81548173ffffffffffffffffffffffffffffffffffffffff021916908373ffffffffffffffffffffffffffffffffffffffff16021790555034801561007857600080fd5b5061008b565b6105b08061087f83390190565b6107e58061009a6000396000f3fe608060405234801561001057600080fd5b506004361061007d5760003560e01c8063826926791161005b57806382692679146100dc57806389d31453146100fa578063ca240d1f1461012a578063e0149704146101485761007d565b806304623a27146100825780631b7d954c146100a05780637162d25d146100be575b600080fd5b61008a610166565b604051610097919061038f565b60405180910390f35b6100a8610201565b6040516100b591906103ca565b60405180910390f35b6100c661020d565b6040516100d391906103ca565b60405180910390f35b6100e4610215565b6040516100f1919061038f565b60405180910390f35b610114600480360381019061010f9190610425565b610252565b60405161012191906103ca565b60405180910390f35b610132610266565b60405161013f91906104a6565b60405180910390f35b61015061028c565b60405161015d9190610520565b60405180910390f35b606060008054906101000a900473ffffffffffffffffffffffffffffffffffffffff1673ffffffffffffffffffffffffffffffffffffffff166306fdde036040518163ffffffff1660e01b8152600401600060405180830381865afa1580156101d3573d6000803e3d6000fd5b505050506040513d6000823e3d601f19601f820116820180604052508101906101fc9190610661565b905090565b600063789d441a905090565b63789d441a81565b60606040518060400160405280600c81526020017f48656c6c6f20576f726c64210000000000000000000000000000000000000000815250905090565b600061025e83836102b0565b905092915050565b600160009054906101000a900473ffffffffffffffffffffffffffffffffffffffff1681565b60008054906101000a900473ffffffffffffffffffffffffffffffffffffffff1681565b600060058311156102ce5781836102c791906106d9565b90506102f9565b60058310156102ea5781836102e3919061073c565b90506102f9565b81836102f6919061076d565b90505b92915050565b600081519050919050565b600082825260208201905092915050565b60005b8381101561033957808201518184015260208101905061031e565b60008484015250505050565b6000601f19601f8301169050919050565b6000610361826102ff565b61036b818561030a565b935061037b81856020860161031b565b61038481610345565b840191505092915050565b600060208201905081810360008301526103a98184610356565b905092915050565b6000819050919050565b6103c4816103b1565b82525050565b60006020820190506103df60008301846103bb565b92915050565b6000604051905090565b600080fd5b600080fd5b610402816103b1565b811461040d57600080fd5b50565b60008135905061041f816103f9565b92915050565b6000806040838503121561043c5761043b6103ef565b5b600061044a85828601610410565b925050602061045b85828601610410565b9150509250929050565b600073ffffffffffffffffffffffffffffffffffffffff82169050919050565b600061049082610465565b9050919050565b6104a081610485565b82525050565b60006020820190506104bb6000830184610497565b92915050565b6000819050919050565b60006104e66104e16104dc84610465565b6104c1565b610465565b9050919050565b60006104f8826104cb565b9050919050565b600061050a826104ed565b9050919050565b61051a816104ff565b82525050565b60006020820190506105356000830184610511565b92915050565b600080fd5b600080fd5b7f4e487b7100000000000000000000000000000000000000000000000000000000600052604160045260246000fd5b61057d82610345565b810181811067ffffffffffffffff8211171561059c5761059b610545565b5b80604052505050565b60006105af6103e5565b90506105bb8282610574565b919050565b600067ffffffffffffffff8211156105db576105da610545565b5b6105e482610345565b9050602081019050919050565b60006106046105ff846105c0565b6105a5565b9050828152602081018484840111156106205761061f610540565b5b61062b84828561031b565b509392505050565b600082601f8301126106485761064761053b565b5b81516106588482602086016105f1565b91505092915050565b600060208284031215610677576106766103ef565b5b600082015167ffffffffffffffff811115610695576106946103f4565b5b6106a184828501610633565b91505092915050565b7f4e487b7100000000000000000000000000000000000000000000000000000000600052601160045260246000fd5b60006106e4826103b1565b91506106ef836103b1565b9250828201905080821115610707576107066106aa565b5b92915050565b7f4e487b7100000000000000000000000000000000000000000000000000000000600052601260045260246000fd5b6000610747826103b1565b9150610752836103b1565b9250826107625761076161070d565b5b828204905092915050565b6000610778826103b1565b9150610783836103b1565b9250828202610791816103b1565b915082820484148315176107a8576107a76106aa565b5b509291505056fea2646970667358221220441f814330779986e50db3d863345173dbdfdf159bdfb13d334984cba423810964736f6c6343000814003360806040526040518060400160405280600681526020017f4f6e7468657200000000000000000000000000000000000000000000000000008152506000908161004891906102ab565b5034801561005557600080fd5b5061037d565b600081519050919050565b7f4e487b7100000000000000000000000000000000000000000000000000000000600052604160045260246000fd5b7f4e487b7100000000000000000000000000000000000000000000000000000000600052602260045260246000fd5b600060028204905060018216806100dc57607f821691505b6020821081036100ef576100ee610095565b5b50919050565b60008190508160005260206000209050919050565b60006020601f8301049050919050565b600082821b905092915050565b6000600883026101577fffffffffffffffffffffffffffffffffffffffffffffffffffffffffffffffff8261011a565b610161868361011a565b95508019841693508086168417925050509392505050565b6000819050919050565b6000819050919050565b60006101a86101a361019e84610179565b610183565b610179565b9050919050565b6000819050919050565b6101c28361018d565b6101d66101ce826101af565b848454610127565b825550505050565b600090565b6101eb6101de565b6101f68184846101b9565b505050565b5b8181101561021a5761020f6000826101e3565b6001810190506101fc565b5050565b601f82111561025f57610230816100f5565b6102398461010a565b81016020851015610248578190505b61025c6102548561010a565b8301826101fb565b50505b505050565b600082821c905092915050565b600061028260001984600802610264565b1980831691505092915050565b600061029b8383610271565b9150826002028217905092915050565b6102b48261005b565b67ffffffffffffffff8111156102cd576102cc610066565b5b6102d782546100c4565b6102e282828561021e565b600060209050601f8311600181146103155760008415610303578287015190505b61030d858261028f565b865550610375565b601f198416610323866100f5565b60005b8281101561034b57848901518255600182019150602085019450602081019050610326565b868310156103685784890151610364601f891682610271565b8355505b6001600288020188555050505b505050505050565b6102248061038c6000396000f3fe608060405234801561001057600080fd5b506004361061002b5760003560e01c806306fdde0314610030575b600080fd5b61003861004e565b604051610045919061016c565b60405180910390f35b6000805461005b906101bd565b80601f0160208091040260200160405190810160405280929190818152602001828054610087906101bd565b80156100d45780601f106100a9576101008083540402835291602001916100d4565b820191906000526020600020905b8154815290600101906020018083116100b757829003601f168201915b505050505081565b600081519050919050565b600082825260208201905092915050565b60005b838110156101165780820151818401526020810190506100fb565b60008484015250505050565b6000601f19601f8301169050919050565b600061013e826100dc565b61014881856100e7565b93506101588185602086016100f8565b61016181610122565b840191505092915050565b600060208201905081810360008301526101868184610133565b905092915050565b7f4e487b7100000000000000000000000000000000000000000000000000000000600052602260045260246000fd5b600060028204905060018216806101d557607f821691505b6020821081036101e8576101e761018e565b5b5091905056fea2646970667358221220b583528189048d24bed381c879d313c3f85e2bc7f9d5514d342c21eb064fe1a964736f6c63430008140033",
  "linkReferences": {},
  "deployedLinkReferences": {}
}